{
  "contractName": "StarNotary",
  "abi": [
    {
      "constant": true,
      "inputs": [
        {
          "name": "interfaceId",
          "type": "bytes4"
        }
      ],
      "name": "supportsInterface",
      "outputs": [
        {
          "name": "",
          "type": "bool"
        }
      ],
      "payable": false,
      "stateMutability": "view",
      "type": "function"
    },
    {
      "constant": true,
      "inputs": [
        {
          "name": "",
          "type": "uint256"
        }
      ],
      "name": "starsForSale",
      "outputs": [
        {
          "name": "",
          "type": "uint256"
        }
      ],
      "payable": false,
      "stateMutability": "view",
      "type": "function"
    },
    {
      "constant": true,
      "inputs": [
        {
          "name": "tokenId",
          "type": "uint256"
        }
      ],
      "name": "getApproved",
      "outputs": [
        {
          "name": "",
          "type": "address"
        }
      ],
      "payable": false,
      "stateMutability": "view",
      "type": "function"
    },
    {
      "constant": false,
      "inputs": [
        {
          "name": "to",
          "type": "address"
        },
        {
          "name": "tokenId",
          "type": "uint256"
        }
      ],
      "name": "approve",
      "outputs": [],
      "payable": false,
      "stateMutability": "nonpayable",
      "type": "function"
    },
    {
      "constant": false,
      "inputs": [
        {
          "name": "from",
          "type": "address"
        },
        {
          "name": "to",
          "type": "address"
        },
        {
          "name": "tokenId",
          "type": "uint256"
        }
      ],
      "name": "transferFrom",
      "outputs": [],
      "payable": false,
      "stateMutability": "nonpayable",
      "type": "function"
    },
    {
      "constant": false,
      "inputs": [
        {
          "name": "from",
          "type": "address"
        },
        {
          "name": "to",
          "type": "address"
        },
        {
          "name": "tokenId",
          "type": "uint256"
        }
      ],
      "name": "safeTransferFrom",
      "outputs": [],
      "payable": false,
      "stateMutability": "nonpayable",
      "type": "function"
    },
    {
      "constant": true,
      "inputs": [
        {
          "name": "tokenId",
          "type": "uint256"
        }
      ],
      "name": "ownerOf",
      "outputs": [
        {
          "name": "",
          "type": "address"
        }
      ],
      "payable": false,
      "stateMutability": "view",
      "type": "function"
    },
    {
      "constant": true,
      "inputs": [
        {
          "name": "owner",
          "type": "address"
        }
      ],
      "name": "balanceOf",
      "outputs": [
        {
          "name": "",
          "type": "uint256"
        }
      ],
      "payable": false,
      "stateMutability": "view",
      "type": "function"
    },
    {
      "constant": true,
      "inputs": [
        {
          "name": "",
          "type": "bytes32"
        }
      ],
      "name": "starHashMap",
      "outputs": [
        {
          "name": "",
          "type": "bool"
        }
      ],
      "payable": false,
      "stateMutability": "view",
      "type": "function"
    },
    {
      "constant": true,
      "inputs": [],
      "name": "tokenCount",
      "outputs": [
        {
          "name": "",
          "type": "uint256"
        }
      ],
      "payable": false,
      "stateMutability": "view",
      "type": "function"
    },
    {
      "constant": false,
      "inputs": [
        {
          "name": "to",
          "type": "address"
        },
        {
          "name": "approved",
          "type": "bool"
        }
      ],
      "name": "setApprovalForAll",
      "outputs": [],
      "payable": false,
      "stateMutability": "nonpayable",
      "type": "function"
    },
    {
      "constant": false,
      "inputs": [
        {
          "name": "from",
          "type": "address"
        },
        {
          "name": "to",
          "type": "address"
        },
        {
          "name": "tokenId",
          "type": "uint256"
        },
        {
          "name": "_data",
          "type": "bytes"
        }
      ],
      "name": "safeTransferFrom",
      "outputs": [],
      "payable": false,
      "stateMutability": "nonpayable",
      "type": "function"
    },
    {
      "constant": true,
      "inputs": [
        {
          "name": "owner",
          "type": "address"
        },
        {
          "name": "operator",
          "type": "address"
        }
      ],
      "name": "isApprovedForAll",
      "outputs": [
        {
          "name": "",
          "type": "bool"
        }
      ],
      "payable": false,
      "stateMutability": "view",
      "type": "function"
    },
    {
      "anonymous": false,
      "inputs": [
        {
          "indexed": true,
          "name": "from",
          "type": "address"
        },
        {
          "indexed": true,
          "name": "to",
          "type": "address"
        },
        {
          "indexed": true,
          "name": "tokenId",
          "type": "uint256"
        }
      ],
      "name": "Transfer",
      "type": "event"
    },
    {
      "anonymous": false,
      "inputs": [
        {
          "indexed": true,
          "name": "owner",
          "type": "address"
        },
        {
          "indexed": true,
          "name": "approved",
          "type": "address"
        },
        {
          "indexed": true,
          "name": "tokenId",
          "type": "uint256"
        }
      ],
      "name": "Approval",
      "type": "event"
    },
    {
      "anonymous": false,
      "inputs": [
        {
          "indexed": true,
          "name": "owner",
          "type": "address"
        },
        {
          "indexed": true,
          "name": "operator",
          "type": "address"
        },
        {
          "indexed": false,
          "name": "approved",
          "type": "bool"
        }
      ],
      "name": "ApprovalForAll",
      "type": "event"
    },
    {
      "constant": false,
      "inputs": [
        {
          "name": "name",
          "type": "string"
        },
        {
          "name": "story",
          "type": "string"
        },
        {
          "name": "ra",
          "type": "string"
        },
        {
          "name": "dec",
          "type": "string"
        },
        {
          "name": "mag",
          "type": "string"
        }
      ],
      "name": "createStar",
      "outputs": [],
      "payable": false,
      "stateMutability": "nonpayable",
      "type": "function"
    },
    {
      "constant": false,
      "inputs": [
        {
          "name": "tokenId",
          "type": "uint256"
        },
        {
          "name": "price",
          "type": "uint256"
        }
      ],
      "name": "putStarUpForSale",
      "outputs": [],
      "payable": false,
      "stateMutability": "nonpayable",
      "type": "function"
    },
    {
      "constant": false,
      "inputs": [
        {
          "name": "tokenId",
          "type": "uint256"
        }
      ],
      "name": "buyStar",
      "outputs": [],
      "payable": true,
      "stateMutability": "payable",
      "type": "function"
    },
    {
      "constant": true,
      "inputs": [
        {
          "name": "ra",
          "type": "string"
        },
        {
          "name": "dec",
          "type": "string"
        },
        {
          "name": "mag",
          "type": "string"
        }
      ],
      "name": "checkIfStarExist",
      "outputs": [
        {
          "name": "",
          "type": "bool"
        }
      ],
      "payable": false,
      "stateMutability": "view",
      "type": "function"
    },
    {
      "constant": true,
      "inputs": [
        {
          "name": "tokenId",
          "type": "uint256"
        }
      ],
      "name": "tokenIdToStarInfo",
      "outputs": [
        {
          "name": "",
          "type": "string"
        },
        {
          "name": "",
          "type": "string"
        },
        {
          "name": "",
          "type": "string"
        },
        {
          "name": "",
          "type": "string"
        },
        {
          "name": "",
          "type": "string"
        }
      ],
      "payable": false,
      "stateMutability": "view",
      "type": "function"
    },
    {
      "constant": false,
      "inputs": [
        {
          "name": "tokenId",
          "type": "uint256"
        }
      ],
      "name": "mint",
      "outputs": [],
      "payable": false,
      "stateMutability": "nonpayable",
      "type": "function"
    }
  ],
  "bytecode": "0x6080604052620000416301ffc9a77c01000000000000000000000000000000000000000000000000000000000262000084640100000000026401000000009004565b6200007e6380ac58cd7c01000000000000000000000000000000000000000000000000000000000262000084640100000000026401000000009004565b62000142565b63ffffffff7c010000000000000000000000000000000000000000000000000000000002817bffffffffffffffffffffffffffffffffffffffffffffffffffffffff191614151515620000d657600080fd5b6001600080837bffffffffffffffffffffffffffffffffffffffffffffffffffffffff19167bffffffffffffffffffffffffffffffffffffffffffffffffffffffff1916815260200190815260200160002060006101000a81548160ff02191690831515021790555050565b61281080620001526000396000f300608060405260043610610107576000357c0100000000000000000000000000000000000000000000000000000000900463ffffffff16806301ffc9a71461010c5780630384153d146101705780630564b1301461027d578063081812fc146102be578063095ea7b31461032b5780631967fd981461037857806323b872dd146105ce5780632f1c34ef1461063b578063316a43611461065b57806342842e0e146106925780635f3ff33c146106ff5780636352211e1461088057806370a08231146108ed5780637c953ac4146109445780639f181b5e1461098d578063a0712d68146109b8578063a22cb465146109e5578063b88d4fde14610a34578063e985e9c514610ae7575b600080fd5b34801561011857600080fd5b5061015660048036038101908080357bffffffffffffffffffffffffffffffffffffffffffffffffffffffff19169060200190929190505050610b62565b604051808215151515815260200191505060405180910390f35b34801561017c57600080fd5b50610263600480360381019080803590602001908201803590602001908080601f0160208091040260200160405190810160405280939291908181526020018383808284378201915050505050509192919290803590602001908201803590602001908080601f0160208091040260200160405190810160405280939291908181526020018383808284378201915050505050509192919290803590602001908201803590602001908080601f0160208091040260200160405190810160405280939291908181526020018383808284378201915050505050509192919290505050610bc9565b604051808215151515815260200191505060405180910390f35b34801561028957600080fd5b506102a860048036038101908080359060200190929190505050610c07565b6040518082815260200191505060405180910390f35b3480156102ca57600080fd5b506102e960048036038101908080359060200190929190505050610c1f565b604051808273ffffffffffffffffffffffffffffffffffffffff1673ffffffffffffffffffffffffffffffffffffffff16815260200191505060405180910390f35b34801561033757600080fd5b50610376600480360381019080803573ffffffffffffffffffffffffffffffffffffffff16906020019092919080359060200190929190505050610c70565b005b34801561038457600080fd5b506103a360048036038101908080359060200190929190505050610db5565b60405180806020018060200180602001806020018060200186810386528b818151815260200191508051906020019080838360005b838110156103f35780820151818401526020810190506103d8565b50505050905090810190601f1680156104205780820380516001836020036101000a031916815260200191505b5086810385528a818151815260200191508051906020019080838360005b8381101561045957808201518184015260208101905061043e565b50505050905090810190601f1680156104865780820380516001836020036101000a031916815260200191505b50868103845289818151815260200191508051906020019080838360005b838110156104bf5780820151818401526020810190506104a4565b50505050905090810190601f1680156104ec5780820380516001836020036101000a031916815260200191505b50868103835288818151815260200191508051906020019080838360005b8381101561052557808201518184015260208101905061050a565b50505050905090810190601f1680156105525780820380516001836020036101000a031916815260200191505b50868103825287818151815260200191508051906020019080838360005b8381101561058b578082015181840152602081019050610570565b50505050905090810190601f1680156105b85780820380516001836020036101000a031916815260200191505b509a505050505050505050505060405180910390f35b3480156105da57600080fd5b50610639600480360381019080803573ffffffffffffffffffffffffffffffffffffffff169060200190929190803573ffffffffffffffffffffffffffffffffffffffff16906020019092919080359060200190929190505050611153565b005b61065960048036038101908080359060200190929190505050611222565b005b34801561066757600080fd5b5061069060048036038101908080359060200190929190803590602001909291905050506113ca565b005b34801561069e57600080fd5b506106fd600480360381019080803573ffffffffffffffffffffffffffffffffffffffff169060200190929190803573ffffffffffffffffffffffffffffffffffffffff169060200190929190803590602001909291905050506114c9565b005b34801561070b57600080fd5b5061087e600480360381019080803590602001908201803590602001908080601f0160208091040260200160405190810160405280939291908181526020018383808284378201915050505050509192919290803590602001908201803590602001908080601f0160208091040260200160405190810160405280939291908181526020018383808284378201915050505050509192919290803590602001908201803590602001908080601f0160208091040260200160405190810160405280939291908181526020018383808284378201915050505050509192919290803590602001908201803590602001908080601f0160208091040260200160405190810160405280939291908181526020018383808284378201915050505050509192919290803590602001908201803590602001908080601f01602080910402602001604051908101604052809392919081815260200183838082843782019150505050505091929192905050506114ea565b005b34801561088c57600080fd5b506108ab60048036038101908080359060200190929190505050611a72565b604051808273ffffffffffffffffffffffffffffffffffffffff1673ffffffffffffffffffffffffffffffffffffffff16815260200191505060405180910390f35b3480156108f957600080fd5b5061092e600480360381019080803573ffffffffffffffffffffffffffffffffffffffff169060200190929190505050611af0565b6040518082815260200191505060405180910390f35b34801561095057600080fd5b506109736004803603810190808035600019169060200190929190505050611b74565b604051808215151515815260200191505060405180910390f35b34801561099957600080fd5b506109a2611b94565b6040518082815260200191505060405180910390f35b3480156109c457600080fd5b506109e360048036038101908080359060200190929190505050611b9a565b005b3480156109f157600080fd5b50610a32600480360381019080803573ffffffffffffffffffffffffffffffffffffffff169060200190929190803515159060200190929190505050611ba7565b005b348015610a4057600080fd5b50610ae5600480360381019080803573ffffffffffffffffffffffffffffffffffffffff169060200190929190803573ffffffffffffffffffffffffffffffffffffffff16906020019092919080359060200190929190803590602001908201803590602001908080601f0160208091040260200160405190810160405280939291908181526020018383808284378201915050505050509192919290505050611ce3565b005b348015610af357600080fd5b50610b48600480360381019080803573ffffffffffffffffffffffffffffffffffffffff169060200190929190803573ffffffffffffffffffffffffffffffffffffffff169060200190929190505050611d0b565b604051808215151515815260200191505060405180910390f35b6000806000837bffffffffffffffffffffffffffffffffffffffffffffffffffffffff19167bffffffffffffffffffffffffffffffffffffffffffffffffffffffff1916815260200190815260200160002060009054906101000a900460ff169050919050565b600060086000610bda868686611d9f565b6000191660001916815260200190815260200160002060009054906101000a900460ff1690509392505050565b60076020528060005260406000206000915090505481565b6000610c2a82611f23565b1515610c3557600080fd5b6002600083815260200190815260200160002060009054906101000a900473ffffffffffffffffffffffffffffffffffffffff169050919050565b6000610c7b82611a72565b90508073ffffffffffffffffffffffffffffffffffffffff168373ffffffffffffffffffffffffffffffffffffffff1614151515610cb857600080fd5b8073ffffffffffffffffffffffffffffffffffffffff163373ffffffffffffffffffffffffffffffffffffffff161480610cf85750610cf78133611d0b565b5b1515610d0357600080fd5b826002600084815260200190815260200160002060006101000a81548173ffffffffffffffffffffffffffffffffffffffff021916908373ffffffffffffffffffffffffffffffffffffffff160217905550818373ffffffffffffffffffffffffffffffffffffffff168273ffffffffffffffffffffffffffffffffffffffff167f8c5be1e5ebec7d5bd14f71427d1e84f3dd0314c0f7b2291e5b200ac8c7c3b92560405160405180910390a4505050565b6060806060806060600660008781526020019081526020016000206000016006600088815260200190815260200160002060010160066000898152602001908152602001600020600201600001600660008a8152602001908152602001600020600201600101600660008b8152602001908152602001600020600201600201848054600181600116156101000203166002900480601f016020809104026020016040519081016040528092919081815260200182805460018160011615610100020316600290048015610ec95780601f10610e9e57610100808354040283529160200191610ec9565b820191906000526020600020905b815481529060010190602001808311610eac57829003601f168201915b50505050509450838054600181600116156101000203166002900480601f016020809104026020016040519081016040528092919081815260200182805460018160011615610100020316600290048015610f655780601f10610f3a57610100808354040283529160200191610f65565b820191906000526020600020905b815481529060010190602001808311610f4857829003601f168201915b50505050509350828054600181600116156101000203166002900480601f0160208091040260200160405190810160405280929190818152602001828054600181600116156101000203166002900480156110015780601f10610fd657610100808354040283529160200191611001565b820191906000526020600020905b815481529060010190602001808311610fe457829003601f168201915b50505050509250818054600181600116156101000203166002900480601f01602080910402602001604051908101604052809291908181526020018280546001816001161561010002031660029004801561109d5780601f106110725761010080835404028352916020019161109d565b820191906000526020600020905b81548152906001019060200180831161108057829003601f168201915b50505050509150808054600181600116156101000203166002900480601f0160208091040260200160405190810160405280929190818152602001828054600181600116156101000203166002900480156111395780601f1061110e57610100808354040283529160200191611139565b820191906000526020600020905b81548152906001019060200180831161111c57829003601f168201915b505050505090509450945094509450945091939590929450565b61115d3382611f95565b151561116857600080fd5b600073ffffffffffffffffffffffffffffffffffffffff168273ffffffffffffffffffffffffffffffffffffffff16141515156111a457600080fd5b6111ae838261202a565b6111b8838261212d565b6111c2828261225c565b808273ffffffffffffffffffffffffffffffffffffffff168473ffffffffffffffffffffffffffffffffffffffff167fddf252ad1be2c89b69c2b068fc378daa952ba7f163c4a11628f55a4df523b3ef60405160405180910390a4505050565b6000806000600760008581526020019081526020016000205411151561124757600080fd5b600760008481526020019081526020016000205491503073ffffffffffffffffffffffffffffffffffffffff16636352211e846040518263ffffffff167c010000000000000000000000000000000000000000000000000000000002815260040180828152602001915050602060405180830381600087803b1580156112cc57600080fd5b505af11580156112e0573d6000803e3d6000fd5b505050506040513d60208110156112f657600080fd5b8101908080519060200190929190505050905081341015151561131857600080fd5b611322818461212d565b61132c338461225c565b8073ffffffffffffffffffffffffffffffffffffffff166108fc839081150290604051600060405180830381858888f19350505050158015611372573d6000803e3d6000fd5b50813411156113c5573373ffffffffffffffffffffffffffffffffffffffff166108fc8334039081150290604051600060405180830381858888f193505050501580156113c3573d6000803e3d6000fd5b505b505050565b3373ffffffffffffffffffffffffffffffffffffffff163073ffffffffffffffffffffffffffffffffffffffff16636352211e846040518263ffffffff167c010000000000000000000000000000000000000000000000000000000002815260040180828152602001915050602060405180830381600087803b15801561145057600080fd5b505af1158015611464573d6000803e3d6000fd5b505050506040513d602081101561147a57600080fd5b810190808051906020019092919050505073ffffffffffffffffffffffffffffffffffffffff161415156114ad57600080fd5b8060076000848152602001908152602001600020819055505050565b6114e58383836020604051908101604052806000815250611ce3565b505050565b60006114f46126d3565b6114fc6126f5565b600060056000815480929190600101919050555060055493506040518060000190506040518091039020600019166006600086815260200190815260200160002060020160010160405160200180828054600181600116156101000203166002900480156115a15780601f1061157f5761010080835404028352918201916115a1565b820191906000526020600020905b81548152906001019060200180831161158d575b50509150506040516020818303038152906040526040518082805190602001908083835b6020831015156115ea57805182526020820191506020810190506020830392506115c5565b6001836020036101000a03801982511681845116808217855250505050505090500191505060405180910390206000191614151561162757600080fd5b604051806000019050604051809103902060001916876040516020018082805190602001908083835b6020831015156116755780518252602082019150602081019050602083039250611650565b6001836020036101000a0380198251168184511680821785525050505050509050019150506040516020818303038152906040526040518082805190602001908083835b6020831015156116de57805182526020820191506020810190506020830392506116b9565b6001836020036101000a0380198251168184511680821785525050505050509050019150506040518091039020600019161415151561171c57600080fd5b604051806000019050604051809103902060001916866040516020018082805190602001908083835b60208310151561176a5780518252602082019150602081019050602083039250611745565b6001836020036101000a0380198251168184511680821785525050505050509050019150506040516020818303038152906040526040518082805190602001908083835b6020831015156117d357805182526020820191506020810190506020830392506117ae565b6001836020036101000a0380198251168184511680821785525050505050509050019150506040518091039020600019161415151561181157600080fd5b604051806000019050604051809103902060001916856040516020018082805190602001908083835b60208310151561185f578051825260208201915060208101905060208303925061183a565b6001836020036101000a0380198251168184511680821785525050505050509050019150506040516020818303038152906040526040518082805190602001908083835b6020831015156118c857805182526020820191506020810190506020830392506118a3565b6001836020036101000a0380198251168184511680821785525050505050509050019150506040518091039020600019161415151561190657600080fd5b6000841415151561191657600080fd5b611921878787610bc9565b15151561192d57600080fd5b6060604051908101604052808881526020018781526020018681525092506060604051908101604052808a81526020018981526020018481525091508160066000868152602001908152602001600020600082015181600001908051906020019061199992919061271d565b5060208201518160010190805190602001906119b692919061271d565b5060408201518160020160008201518160000190805190602001906119dc92919061271d565b5060208201518160010190805190602001906119f992919061271d565b506040820151816002019080519060200190611a1692919061271d565b505050905050611a27878787611d9f565b9050600160086000836000191660001916815260200190815260200160002060006101000a81548160ff021916908315150217905550611a6733856123b6565b505050505050505050565b6000806001600084815260200190815260200160002060009054906101000a900473ffffffffffffffffffffffffffffffffffffffff169050600073ffffffffffffffffffffffffffffffffffffffff168173ffffffffffffffffffffffffffffffffffffffff1614151515611ae757600080fd5b80915050919050565b60008073ffffffffffffffffffffffffffffffffffffffff168273ffffffffffffffffffffffffffffffffffffffff1614151515611b2d57600080fd5b600360008373ffffffffffffffffffffffffffffffffffffffff1673ffffffffffffffffffffffffffffffffffffffff168152602001908152602001600020549050919050565b60086020528060005260406000206000915054906101000a900460ff1681565b60055481565b611ba433826123b6565b50565b3373ffffffffffffffffffffffffffffffffffffffff168273ffffffffffffffffffffffffffffffffffffffff1614151515611be257600080fd5b80600460003373ffffffffffffffffffffffffffffffffffffffff1673ffffffffffffffffffffffffffffffffffffffff16815260200190815260200160002060008473ffffffffffffffffffffffffffffffffffffffff1673ffffffffffffffffffffffffffffffffffffffff16815260200190815260200160002060006101000a81548160ff0219169083151502179055508173ffffffffffffffffffffffffffffffffffffffff163373ffffffffffffffffffffffffffffffffffffffff167f17307eab39ab6107e8899845ad3d59bd9653f200f220920489ca2b5937696c3183604051808215151515815260200191505060405180910390a35050565b611cee848484611153565b611cfa8484848461245c565b1515611d0557600080fd5b50505050565b6000600460008473ffffffffffffffffffffffffffffffffffffffff1673ffffffffffffffffffffffffffffffffffffffff16815260200190815260200160002060008373ffffffffffffffffffffffffffffffffffffffff1673ffffffffffffffffffffffffffffffffffffffff16815260200190815260200160002060009054906101000a900460ff16905092915050565b60008383836040516020018084805190602001908083835b602083101515611ddc5780518252602082019150602081019050602083039250611db7565b6001836020036101000a03801982511681845116808217855250505050505090500183805190602001908083835b602083101515611e2f5780518252602082019150602081019050602083039250611e0a565b6001836020036101000a03801982511681845116808217855250505050505090500182805190602001908083835b602083101515611e825780518252602082019150602081019050602083039250611e5d565b6001836020036101000a03801982511681845116808217855250505050505090500193505050506040516020818303038152906040526040518082805190602001908083835b602083101515611eed5780518252602082019150602081019050602083039250611ec8565b6001836020036101000a038019825116818451168082178552505050505050905001915050604051809103902090509392505050565b6000806001600084815260200190815260200160002060009054906101000a900473ffffffffffffffffffffffffffffffffffffffff169050600073ffffffffffffffffffffffffffffffffffffffff168173ffffffffffffffffffffffffffffffffffffffff161415915050919050565b600080611fa183611a72565b90508073ffffffffffffffffffffffffffffffffffffffff168473ffffffffffffffffffffffffffffffffffffffff16148061201057508373ffffffffffffffffffffffffffffffffffffffff16611ff884610c1f565b73ffffffffffffffffffffffffffffffffffffffff16145b8061202157506120208185611d0b565b5b91505092915050565b8173ffffffffffffffffffffffffffffffffffffffff1661204a82611a72565b73ffffffffffffffffffffffffffffffffffffffff1614151561206c57600080fd5b600073ffffffffffffffffffffffffffffffffffffffff166002600083815260200190815260200160002060009054906101000a900473ffffffffffffffffffffffffffffffffffffffff1673ffffffffffffffffffffffffffffffffffffffff161415156121295760006002600083815260200190815260200160002060006101000a81548173ffffffffffffffffffffffffffffffffffffffff021916908373ffffffffffffffffffffffffffffffffffffffff1602179055505b5050565b8173ffffffffffffffffffffffffffffffffffffffff1661214d82611a72565b73ffffffffffffffffffffffffffffffffffffffff1614151561216f57600080fd5b6121c26001600360008573ffffffffffffffffffffffffffffffffffffffff1673ffffffffffffffffffffffffffffffffffffffff1681526020019081526020016000205461267e90919063ffffffff16565b600360008473ffffffffffffffffffffffffffffffffffffffff1673ffffffffffffffffffffffffffffffffffffffff1681526020019081526020016000208190555060006001600083815260200190815260200160002060006101000a81548173ffffffffffffffffffffffffffffffffffffffff021916908373ffffffffffffffffffffffffffffffffffffffff1602179055505050565b600073ffffffffffffffffffffffffffffffffffffffff166001600083815260200190815260200160002060009054906101000a900473ffffffffffffffffffffffffffffffffffffffff1673ffffffffffffffffffffffffffffffffffffffff161415156122ca57600080fd5b816001600083815260200190815260200160002060006101000a81548173ffffffffffffffffffffffffffffffffffffffff021916908373ffffffffffffffffffffffffffffffffffffffff16021790555061236f6001600360008573ffffffffffffffffffffffffffffffffffffffff1673ffffffffffffffffffffffffffffffffffffffff1681526020019081526020016000205461269f90919063ffffffff16565b600360008473ffffffffffffffffffffffffffffffffffffffff1673ffffffffffffffffffffffffffffffffffffffff168152602001908152602001600020819055505050565b600073ffffffffffffffffffffffffffffffffffffffff168273ffffffffffffffffffffffffffffffffffffffff16141515156123f257600080fd5b6123fc828261225c565b808273ffffffffffffffffffffffffffffffffffffffff16600073ffffffffffffffffffffffffffffffffffffffff167fddf252ad1be2c89b69c2b068fc378daa952ba7f163c4a11628f55a4df523b3ef60405160405180910390a45050565b60008061247e8573ffffffffffffffffffffffffffffffffffffffff166126c0565b151561248d5760019150612675565b8473ffffffffffffffffffffffffffffffffffffffff1663150b7a02338887876040518563ffffffff167c0100000000000000000000000000000000000000000000000000000000028152600401808573ffffffffffffffffffffffffffffffffffffffff1673ffffffffffffffffffffffffffffffffffffffff1681526020018473ffffffffffffffffffffffffffffffffffffffff1673ffffffffffffffffffffffffffffffffffffffff16815260200183815260200180602001828103825283818151815260200191508051906020019080838360005b83811015612582578082015181840152602081019050612567565b50505050905090810190601f1680156125af5780820380516001836020036101000a031916815260200191505b5095505050505050602060405180830381600087803b1580156125d157600080fd5b505af11580156125e5573d6000803e3d6000fd5b505050506040513d60208110156125fb57600080fd5b8101908080519060200190929190505050905063150b7a027c0100000000000000000000000000000000000000000000000000000000027bffffffffffffffffffffffffffffffffffffffffffffffffffffffff1916817bffffffffffffffffffffffffffffffffffffffffffffffffffffffff19161491505b50949350505050565b60008083831115151561269057600080fd5b82840390508091505092915050565b60008082840190508381101515156126b657600080fd5b8091505092915050565b600080823b905060008111915050919050565b6060604051908101604052806060815260200160608152602001606081525090565b60a060405190810160405280606081526020016060815260200161271761279d565b81525090565b828054600181600116156101000203166002900490600052602060002090601f016020900481019282601f1061275e57805160ff191683800117855561278c565b8280016001018555821561278c579182015b8281111561278b578251825591602001919060010190612770565b5b50905061279991906127bf565b5090565b6060604051908101604052806060815260200160608152602001606081525090565b6127e191905b808211156127dd5760008160009055506001016127c5565b5090565b905600a165627a7a72305820792eae8d8017ca7e06fe022032b185c8bf9d40b745665f094c64a7a274d6d32d0029",
  "source": "pragma solidity ^0.4.23;\n\nimport 'openzeppelin-solidity/contracts/token/ERC721/ERC721.sol';\n\ncontract StarNotary is ERC721 { \n\n    struct Coordinates {\n        string ra;\n        string dec;\n        string mag;\n    }\n\n    struct Star { \n        string name;\n        string story;\n        Coordinates coordinates;\n    }\n\n    uint256 public tokenCount;\n\n    mapping(uint256 => Star) public tokenIdToStarInfo; \n    mapping(uint256 => uint256) public starsForSale;\n    mapping(bytes32 => bool) public starHashMap;\n\n    /**\n    * Create star\n    *\n    * @param name The name of the star\n    * @param story The story\n    * @param ra The ra of the star\n    * @param dec The dec of the star\n    * @param mag The mag of the star\n    */\n    function createStar(string name, string story,  string ra, string dec, string mag) public {\n        tokenCount++;\n        uint256 tokenId = tokenCount;\n\n        //check if tokenId already exists\n        require(keccak256(abi.encodePacked(tokenIdToStarInfo[tokenId].coordinates.dec)) == keccak256(\"\"));\n\n        //check input \n        require(keccak256(abi.encodePacked(ra)) != keccak256(\"\"));\n        require(keccak256(abi.encodePacked(dec)) != keccak256(\"\"));\n        require(keccak256(abi.encodePacked(mag)) != keccak256(\"\"));\n        require(tokenId != 0);\n        require(!checkIfStarExist(ra, dec, mag));\n\n        Coordinates memory newCoordinates = Coordinates(ra, dec, mag);\n        Star memory newStar = Star(name, story, newCoordinates);\n\n        tokenIdToStarInfo[tokenId] = newStar;\n\n        bytes32 hash = generateStarHash(ra, dec, mag);\n        starHashMap[hash] = true;\n\n        _mint(msg.sender, tokenId);\n    }\n\n    function putStarUpForSale(uint256 tokenId, uint256 price) public { \n        require(this.ownerOf(tokenId) == msg.sender);\n\n        starsForSale[tokenId] = price;\n    }\n\n    function buyStar(uint256 tokenId) public payable { \n        require(starsForSale[tokenId] > 0);\n        \n        uint256 starCost = starsForSale[tokenId];\n        address starOwner = this.ownerOf(tokenId);\n        require(msg.value >= starCost);\n\n        _removeTokenFrom(starOwner, tokenId);\n        _addTokenTo(msg.sender, tokenId);\n        \n        starOwner.transfer(starCost);\n\n        if (msg.value > starCost) { \n            msg.sender.transfer(msg.value - starCost);\n        }\n    }\n\n    function checkIfStarExist(string ra, string dec, string mag) public view returns(bool) {\n        return starHashMap[generateStarHash(ra, dec, mag)];\n    }\n\n    function generateStarHash(string ra, string dec, string mag) private pure returns(bytes32) {\n        return keccak256(abi.encodePacked(ra, dec, mag));\n    }\n\n    function tokenIdToStarInfo(uint256 tokenId) public view returns(string, string, string, string, string) {\n        return (tokenIdToStarInfo[tokenId].name, tokenIdToStarInfo[tokenId].story, tokenIdToStarInfo[tokenId].coordinates.ra, tokenIdToStarInfo[tokenId].coordinates.dec, tokenIdToStarInfo[tokenId].coordinates.mag);\n    }\n\n    function mint(uint256 tokenId) public {\n        super._mint(msg.sender, tokenId);\n    }\n}",
  "sourcePath": "C:\\Users\\bruno\\Documents\\Udacity\\project-5-besm-v2\\smart_contracts\\contracts\\StarNotary.sol",
  "compiler": {
    "name": "solc",
    "version": "0.4.24+commit.e67f0147.Emscripten.clang"
  },
  "schemaVersion": "2.0.1",
  "updatedAt": "2018-10-27T18:44:23.449Z"
}